:020000040800F2
:1000000000800120450800085B0200085D0200082E
:100010005F0200086102000863020008000000009F
:100020000000000000000000000000006502000861
:100030006702000800000000690200086B02000867
:100040008D0800088D0800088D0800088D0800083C
:100050008D0800088D0800088D0800088D0800082C
:100060008D0800088D0800088D0800088D0800081C
:100070008D0800088D0800088D0800088D0800080C
:100080008D0800088D0800088D0800088D080008FC
:100090008D0800088D0800088D0800088D080008EC
:1000A0008D0800088D0800088D0800088D080008DC
:1000B0008D0800088D0800088D0800088D080008CC
:1000C0008D0800088D0800088D0800088D080008BC
:1000D0008D0800088D0800088D0800088D080008AC
:1000E0008D0800088D0800088D0800088D0800089C
:1000F0008D0800088D0800088D0800088D0800088C
:100100008D0800088D0800088D0800088D0800087B
:100110008D0800088D0800088D0800088D0800086B
:100120008D0800088D0800088D0800088D0800085B
:100130008D0800088D0800088D0800088D0800084B
:1001400000000000000000000000000000000000AF
:100150008D0800088D0800088D0800088D0800082B
:100160008D0800088D0800088D0800088D0800081B
:100170008D0800088D0800088D0800088D0800080B
:040180008D080008DE
:1001840010B5054C237833B9044B13B10448AFF3CD
:1001940000800123237010BD5004002000000000E3
:1001A400D80900080C4B43B10C480D4910B5AFF306
:1001B40000800C48036823B910BD0A48036833B9AA
:1001C4007047094B002BF7D0BDE810401847064B89
:1001D400002BF5D0184700BF00000000D809000824
:1001E40054040020500400200000000008B500F072
:1001F40009F90121084600F06FF900F039F90028E7
:10020400FBD001223B21022000F0A6F9002000F0DF
:10021400F1F90121022000F05FF9192000F016F92C
:100224000128FAD1002000F07FF9042000F08CF9B5
:10023400042000F081F9012000F0CCF9022000F044
:10024400B9F900F0BFF90228FBD1002000F0C2F98F
:1002540000F002FA08BD7047FEE7FEE7FEE7FEE79E
:10026400704770477047704700B583B001210C4850
:1002740000F013F9684600F0AFFA01238DF8073057
:1002840000228DF804208DF80620009328238DF891
:1002940005306946034800F049FA03B05DF804FBF1
:1002A400020018000008014010B582B00446012184
:1002B4000F4B53F8200000F0F0F8684600F08CFA79
:1002C40001238DF8073000238DF8043010238DF8B6
:1002D4000630084B33F81430009304238DF80530AE
:1002E4006946054B53F8240000F020FA02B010BD13
:1002F400000000200C00002014000020022807D871
:10030400044B33F810301BB1034A52F82020136118
:10031400704700BF0C00002014000020022809D8F8
:10032400054B33F810302BB1044A52F82010CA6838
:100334005340CB60704700BF0C0000201400002025
:1003440008B5042000F054FA074B1B68074AA2FBC7
:1003540003239B0C064A136012684FF47A7303FB61
:1003640002F3044A136008BD2000002083DE1B430F
:10037400700400206C04002008B5FFF7E1FF0020A2
:10038400FFF792FF0120FFF78FFF0220FFF78CFF9A
:100394000020FFF7B3FF0120FFF7B0FF0220FFF7B3
:1003A400ADFFFFF761FF08BD1AE0144B1B6803FBA8
:1003B40000F0134B58600020114B00229A601A6819
:1003C40042F001021A600E4B1B6803F00113012B6B
:1003D400F9D00B4B1A6822F001021A6000229A60CD
:1003E40058B13228E1D9054B1A68322303FB02F3D2
:1003F400034A5360323880B2DEE770476C04002051
:1004040010E000E0104A136843F0010313600E4B40
:100414001B6813F0020FFAD00B4B5A686FF30102FA
:100424005A60094B5B6813F00C0FFAD1064B00219C
:1004340059601A6822F0867222F480321A601963B5
:100444004FF41F029A60704700100240030C03F13E
:10045400804303F504331A6800F01F00012303FAF4
:1004640000F030EA020301D00020704701207047F9
:1004740010B5002400E001341120FFF7E7FF012844
:1004840002D0B4F5405FF6D31120FFF7DFFF012857
:1004940001D0002010BD012010BD01290ED0030C95
:1004A40003F1804303F504331A6800F01F000121AF
:1004B40001FA00F022EA000018607047030C03F10F
:1004C400804303F504331A6800F01F0001FA00F0BA
:1004D4001043186070470000042821D8DFE800F0BA
:1004E40003090F151B000F4B1A6861F300021A6011
:1004F40070470C4B1A6861F310421A607047094B3D
:100504001A6861F318621A607047064B1A6A61F33D
:1005140000021A627047034B5A6A61F300025A627E
:10052400704700BF00100240024B5A6860F3071284
:100534005A60704700100240024B5A6860F30A2266
:100544005A60704700100240024B5A6860F3CD2293
:100554005A6070470010024010B4E8B104461448D1
:10056400436843F480334360012C1BD01048436834
:1005740043F4003343600E4B586861F39540586070
:10058400C1F30111586861F35E705860596862F3F1
:10059400DF71596010BC7047054B58686FF3104009
:1005A4005860E8E7034640686FF351405860E2E75B
:1005B40000100240024B5A6860F301025A6070470F
:1005C40000100240024B5868C0F38100704700BF1E
:1005D40000100240012805D0054B5A6D6FF3051237
:1005E4005A657047024A536D43F0300353657047B0
:1005F40000100240024B5A6D60F30D325A65704789
:1006040000100240124A136843F001031360104BB8
:100614001B6813F0020FFAD00D4B5A686FF30102F6
:100624005A600B4B5B6813F00C0FFAD1084B002196
:1006340059601A6822F0867222F480321A601963B3
:100644004FF41F029A604FF00062024B9A607047A9
:100654000010024000ED00E008B5FFF7B3FF0128E9
:1006640018D028B1022823D02A4A2B4B1A6014E050
:100674002A4B5B6D13F4007F08D0284B1B6B13F0DF
:10068400007F03D0264A244B1A6006E0214A224BFD
:100694001A6002E01F4A204B1A60204B5B68C3F3C8
:1006A4000313204AD15C1C4A1368CB40136008BD75
:1006B4001A4A5168C1F300415368C3F38343526833
:1006C400C2F341721AB90F2B01D0023302E003EBDB
:1006D4000213013389B1114A526812F4003F12D057
:1006E4000E4A526DC2F30132911C0A4AB2FBF1F276
:1006F40002FB03F3084A1360CFE70B4A02FB03F340
:10070400054A1360C9E7034A02FB03F3024A136074
:10071400C3E700BF00127A0020000020001002404E
:10072400006CDC02F009000800093D00F0B40A681E
:1007340096B28B79032B1FD05BB94B7903F00F0171
:10074400182B04D0282B0ED193B243610BE0066121
:1007540009E00D79CC7903F0080105F0040319438D
:1007640004F00303194397B212F0FF0F1BD1FF2EBD
:1007740030D9360A002319E00021F4E70133072BAE
:10078400F5D847FA03F212F0010FF7D004689A0083
:100794000F25954024EA05040460046801FA02F276
:1007A40022430260EAE70023E9E70133072B11D86B
:1007B40046FA03F212F0010FF7D044689A000F25AD
:1007C400954024EA05044460446801FA02F2224395
:1007D4004260EAE7F0BC70474FF6FF730360002302
:1007E40083710371042343710123C37170470000B3
:1007F400042805D0054A136823F0040313607047E6
:10080400024A136843F004031360704710E000E0E9
:1008140008B5FFF7EBFCFFF7AFFD0020FFF77EFD07
:10082400C820FFF7C1FD0120FFF778FDC820FFF7BE
:10083400BBFD0220FFF772FDC820FFF7B5FDECE712
:10084400002103E00B4B5B58435004310A480B4B27
:1008540042189A42F6D30A4A02E0002342F8043BC3
:10086400084B9A42F9D3FFF7CDFE00F00FF8FFF7DB
:10087400CFFF7047100A0008000000205004002039
:100884005004002074040020FEE7000070B50F4EF1
:100894000F4D761BB61018BF002405D0013455F84F
:1008A400043B9847A642F9D10A4E0B4D761B00F043
:1008B40091F8B61018BF002406D0013455F8043B53
:1008C4009847A642F9D170BD70BD00BF040A000864
:1008D400040A00080C0A0008040A0008024B13B1B9
:1008E400024800F005B87047000000000109000844
:1008F400002301461A46184600F01AB838B50A4CC7
:100904000A4D641BA4100AD004F18043013B05EB9B
:100914008305013C55F804399847002CF9D1BDE80A
:10092400384000F05DB800BF100A00080C0A000847
:100934002DE9F047254C2568D5F8484106468846F8
:1009440092469946C4B360681F2817DC431C76B1ED
:1009540004EB80050122C5F888A0D4F888118240F0
:100964001143022EC4F88811C5F808911ED0023034
:10097400636044F820800020BDE8F087144B03B383
:100984004FF4C870AFF300800446D0B1D5F84831B5
:10099400002780E88800C5F8484138460123C4F898
:1009A4008871C4F88C71002EE1D0D1E7D4F88C1191
:1009B4000A43C4F88C21DAE705F5A674C5F8484162
:1009C400C1E74FF0FF30BDE8F08700BF000A000820
:1009D40000000000F8B500BFF8BC08BC9E46704794
:0C09E400F8B500BFF8BC08BC9E46704788
:1009F00000000000000000000102030406070809CF
:040A000028000020AA
:080A0400E1080008A901000847
:040A0C008501000858
:100A1000050018000500180005001800002000401F
:100A20000080000000140140001401400014014047
:100A300000127A00000000000000000014030020F3
:100A40007C030020E4030020000000000000000000
:100A50000000000000000000000000000000000096
:100A60000000000000000000000000000000000086
:100A70000000000000000000000000000000000076
:100A80000000000000000000000000000000000066
:100A90000000000000000000000000000000000056
:100AA0000000000000000000000000000000000046
:100AB0000000000000000000000000000000000036
:100AC0000000000000000000000000000000000026
:100AD0000000000000000000000000000000000016
:100AE00001000000000000000E33CDAB34126DE6B3
:100AF000ECDE05000B00000000000000000000001C
:100B000000000000000000000000000000000000E5
:100B100000000000000000000000000000000000D5
:100B200000000000000000000000000000000000C5
:100B300000000000000000000000000000000000B5
:0400000508000845A2
:00000001FF
