:020000040800F2
:1000000000800120A11C0008B7110008B9110008E8
:10001000BB110008BD110008BF110008000000005E
:10002000000000000000000000000000C1110008F6
:10003000C311000800000000C5110008C711000826
:10004000E91C0008E91C0008E91C0008E91C00087C
:10005000E91C0008E91C0008E91C0008E91C00086C
:10006000E91C0008E91C0008E91C0008E91C00085C
:10007000E91C0008E91C0008E91C0008E91C00084C
:10008000E91C0008E91C0008E91C0008E91C00083C
:10009000E91C0008E91C0008E91C0008E91C00082C
:1000A000E91C0008E91C0008E91C0008E91C00081C
:1000B000E91C0008E91C0008E91C0008E91C00080C
:1000C000E91C0008E91C0008E91C0008E91C0008FC
:1000D000E91C0008E91C0008E91C0008E91C0008EC
:1000E000E91C0008E91C0008E91C0008E91C0008DC
:1000F000E91C0008E91C0008E91C0008E91C0008CC
:10010000E91C0008E91C0008E91C0008E91C0008BB
:10011000E91C0008E91C0008E91C0008E91C0008AB
:10012000E91C0008E91C0008E91C0008E91C00089B
:10013000E91C0008E91C0008E91C0008E91C00088B
:1001400000000000000000000000000000000000AF
:10015000E91C0008E91C0008E91C0008E91C00086B
:10016000E91C0008E91C0008E91C0008E91C00085B
:10017000E91C0008E91C0008E91C0008E91C00084B
:04018000E91C00086E
:1001C00010B5054C237833B9044B13B10448AFF391
:1001D00000800123237010BDB4090020000000003E
:1001E000085700080C4B43B10C480D4910B5AFF34C
:1001F00000800C48036823B910BD0A48036833B96E
:100200007047094B002BF7D0BDE810401847064B4C
:10021000002BF5D0184700BF000000000857000869
:10022000B8090020B4090020000000000000000010
:1002300001F0FF01102A2BDB10F0070F08D010F897
:10024000013B013A8B422DD010F0070F42B3F6D19B
:10025000F0B441EA012141EA014122F007047FF0B4
:1002600000070023F0E80256083C85EA010586EA0B
:10027000010685FA47F5A3FA87F586FA47F6A5FA47
:1002800087F68EB9EED1F0BC01F0FF0102F0070253
:1002900032B110F8013B013A83EA010313B1F8D1FE
:1002A0000020704701387047002D06BF35460338DF
:1002B000073815F0010F07D1013015F4807F02BF18
:1002C000013015F4C03F0130F0BC0138704700BF69
:1002D000844641EA000313F003036DD1403A41D351
:1002E00051F8043B40F8043B51F8043B40F8043B10
:1002F00051F8043B40F8043B51F8043B40F8043B00
:1003000051F8043B40F8043B51F8043B40F8043BEF
:1003100051F8043B40F8043B51F8043B40F8043BDF
:1003200051F8043B40F8043B51F8043B40F8043BCF
:1003300051F8043B40F8043B51F8043B40F8043BBF
:1003400051F8043B40F8043B51F8043B40F8043BAF
:1003500051F8043B40F8043B51F8043B40F8043B9F
:10036000403ABDD2303211D351F8043B40F8043B3F
:1003700051F8043B40F8043B51F8043B40F8043B7F
:1003800051F8043B40F8043B103AEDD20C3205D34F
:1003900051F8043B40F8043B043AF9D2043208D047
:1003A000D2071CBF11F8013B00F8013B01D30B88B9
:1003B00003806046704700BF082A13D38B078DD097
:1003C00010F003038AD0C3F10403D21ADB071CBF69
:1003D00011F8013B00F8013B80D331F8023B20F8D3
:1003E000023B7BE7043AD9D3013A11F8013B00F80C
:1003F000013BF9D20B7803704B7843708B78837094
:10040000604670470000000000000000000000008F
:1004100000000000000000000000000000000000DC
:1004200000000000000000000000000000000000CC
:1004300000000000000000000000000000000000BC
:1004400090F800F06DE9024520F007016FF0000C14
:1004500010F0070491F820F040F049804FF00004BC
:100460006FF00700D1E9002391F840F000F1080097
:1004700082FA4CF2A4FA8CF283FA4CF3A2FA8CF3CF
:100480004BBBD1E9022382FA4CF200F10800A4FA36
:100490008CF283FA4CF3A2FA8CF3E3B9D1E904238A
:1004A00082FA4CF200F10800A4FA8CF283FA4CF3C1
:1004B000A2FA8CF37BB9D1E9062301F1200182FA7B
:1004C0004CF200F10800A4FA8CF283FA4CF3A2FA81
:1004D0008CF3002BC6D0002A04BF04301A4612BA8F
:1004E000B2FA82F2FDE8024500EBD2007047D1E992
:1004F000002304F00305C4F100004FEAC50514F021
:10050000040F91F840F00CFA05F562EA05021CBFF1
:1005100063EA050362464FF00004A9E781F0004159
:1005200002E000BF83F0004330B54FEA41044FEAD8
:10053000430594EA050F08BF90EA020F1FBF54EA73
:10054000000C55EA020C7FEA645C7FEA655C00F00F
:10055000E2804FEA5454D4EB5555B8BF6D420CDDE0
:100560002C4480EA020281EA030382EA000083EA63
:10057000010180EA020281EA0303362D88BF30BD03
:1005800011F0004F4FEA01314FF4801C4CEA113159
:1005900002D0404261EB410113F0004F4FEA0333B8
:1005A0004CEA133302D0524263EB430394EA050F43
:1005B00000F0A780A4F10104D5F1200E0DDB02FAB2
:1005C0000EFC22FA05F2801841F1000103FA0EF246
:1005D000801843FA05F359410EE0A5F120050EF10C
:1005E000200E012A03FA0EFC28BF4CF0020C43FA3D
:1005F00005F3C01851EBE37101F0004507D54FF04A
:10060000000EDCF1000C7EEB00006EEB0101B1F599
:10061000801F1BD3B1F5001F0CD349085FEA3000DF
:100620004FEA3C0C04F101044FEA445212F5800FEA
:1006300080F09A80BCF1004F08BF5FEA500C50F187
:10064000000041EB045141EA050130BD5FEA4C0C6A
:10065000404141EB010111F4801FA4F10104E9D1F3
:1006600091F0000F04BF01460020B1FA81F308BFEA
:100670002033A3F10B03B3F120020CDA0C3208DDB6
:1006800002F1140CC2F10C0201FA0CF021FA02F191
:100690000CE002F11402D8BFC2F1200C01FA02F101
:1006A00020FA0CFCDCBF41EA0C019040E41AA2BF26
:1006B00001EB0451294330BD6FEA04041F3C1CDAEE
:1006C0000C340EDC04F11404C4F1200220FA04F00E
:1006D00001FA02F340EA030021FA04F345EA0301B8
:1006E00030BDC4F10C04C4F1200220FA02F001FA7A
:1006F00004F340EA0300294630BD21FA04F02946FC
:1007000030BD94F0000F83F4801306BF81F4801194
:100710000134013D4EE77FEA645C18BF7FEA655C07
:1007200029D094EA050F08BF90EA020F05D054EAD9
:10073000000C04BF1946104630BD91EA030F1EBFDE
:100740000021002030BD5FEA545C05D140004941E2
:1007500028BF41F0004130BD14F580043CBF01F5D5
:10076000801130BD01F0004545F0FE4141F47001BB
:100770004FF0000030BD7FEA645C1ABF1946104696
:100780007FEA655C1CBF0B46024650EA013406BF97
:1007900052EA033591EA030F41F4002130BD00BF56
:1007A00090F0000F04BF0021704730B54FF4806413
:1007B00004F132044FF000054FF0000150E700BF94
:1007C00090F0000F04BF0021704730B54FF48064F3
:1007D00004F1320410F0004548BF40424FF00001E0
:1007E0003EE700BF42004FEAE2014FEA31014FEA23
:1007F00002701FBF12F07F4393F07F4F81F0605172
:10080000704792F0000F14BF93F07F4F704730B5E0
:100810004FF4607401F0004521F0004120E700BF73
:1008200050EA010208BF704730B54FF000050AE0FA
:1008300050EA010208BF704730B511F0004502D5FB
:10084000404261EB41014FF4806404F132045FEAFD
:10085000915C3FF4DCAE4FF003025FEADC0C18BFA2
:1008600003325FEADC0C18BF033202EBDC02C2F198
:10087000200300FA03FC20FA02F001FA03FE40EA2A
:100880000E0021FA02F11444C1E600BF70B54FF02A
:10089000FF0C4CF4E06C1CEA11541DBF1CEA13550C
:1008A00094EA0C0F95EA0C0F00F0DEF82C4481EA74
:1008B000030621EA4C5123EA4C5350EA013518BF94
:1008C00052EA033541F4801143F4801338D0A0FB81
:1008D00002CE4FF00005E1FB02E506F00042E0FB2E
:1008E00003E54FF00006E1FB03569CF0000F18BF34
:1008F0004EF0010EA4F1FF04B6F5007F64F54074DC
:1009000004D25FEA4E0E6D4146EB060642EAC6216E
:1009100041EA55514FEAC52040EA5E504FEACE2EDB
:10092000B4F1FD0C88BFBCF5E06F1ED8BEF1004FDE
:1009300008BF5FEA500E50F1000041EB045170BD5A
:1009400006F0004646EA010140EA020081EA03019E
:10095000B4EB5C04C2BFD4EB0C0541EA045170BD9A
:1009600041F480114FF0000E013C00F3AB8014F114
:10097000360FDEBF002001F0004170BDC4F100045D
:10098000203C35DA0C341BDC04F11404C4F12005DE
:1009900000FA05F320FA04F001FA05F240EA020039
:1009A00001F0004221F0004110EBD37021FA04F66F
:1009B00042EB06015EEA430E08BF20EAD37070BD29
:1009C000C4F10C04C4F1200500FA04F320FA05F088
:1009D00001FA04F240EA020001F0004110EBD3708A
:1009E00041F100015EEA430E08BF20EAD37070BDFA
:1009F000C4F1200500FA05F24EEA020E20FA04F3D3
:100A000001FA05F243EA020321FA04F001F0004181
:100A100021FA04F220EA020000EBD3705EEA430EF2
:100A200008BF20EAD37070BD94F0000F0FD101F021
:100A30000046400041EB010111F4801F08BF013C5A
:100A4000F7D041EA060195F0000F18BF704703F098
:100A50000046520043EB030313F4801F08BF013D1F
:100A6000F7D043EA0603704794EA0C0F0CEA1355DB
:100A700018BF95EA0C0F0CD050EA410618BF52EA95
:100A80004306D1D181EA030101F000414FF000009B
:100A900070BD50EA410606BF1046194652EA4306A9
:100AA00019D094EA0C0F02D150EA013613D195EA1D
:100AB0000C0F05D152EA03361CBF104619460AD165
:100AC00081EA030101F0004141F0FE4141F470016F
:100AD0004FF0000070BD41F0FE4141F4780170BD5F
:100AE00070B54FF0FF0C4CF4E06C1CEA11541DBFC4
:100AF0001CEA135594EA0C0F95EA0C0F00F0A7F8C6
:100B0000A4EB050481EA030E52EA03354FEA0131F2
:100B100000F088804FEA03334FF0805545EA131305
:100B200043EA12634FEA022245EA111545EA1065CD
:100B30004FEA00260EF000419D4208BF964244F164
:100B4000FD0404F5407402D25B084FEA3202B61A83
:100B500065EB03055B084FEA32024FF480104FF457
:100B6000002CB6EB020E75EB030E22BFB61A7546CB
:100B700040EA0C005B084FEA3202B6EB020E75EB5E
:100B8000030E22BFB61A754640EA5C005B084FEAC6
:100B90003202B6EB020E75EB030E22BFB61A754693
:100BA00040EA9C005B084FEA3202B6EB020E75EB9E
:100BB000030E22BFB61A754640EADC0055EA060E5F
:100BC00018D04FEA051545EA16754FEA06164FEAA2
:100BD000C30343EA52734FEAC2025FEA1C1CC0D14E
:100BE00011F4801F0BD141EA00014FF000004FF0DB
:100BF000004CB6E711F4801F04BF01430020B4F19C
:100C0000FD0C88BFBCF5E06F3FF6AFAEB5EB030C53
:100C100004BFB6EB020C5FEA500C50F1000041EB50
:100C2000045170BD0EF0004E4EEA113114EB5C041D
:100C3000C2BFD4EB0C0541EA045170BD41F48011F0
:100C40004FF0000E013C90E645EA060E8DE60CEAF8
:100C5000135594EA0C0F08BF95EA0C0F3FF43BAF15
:100C600094EA0C0F0AD150EA01347FF434AF95EACC
:100C70000C0F7FF425AF104619462CE795EA0C0FB0
:100C800006D152EA03353FF4FDAE1046194622E77D
:100C900050EA410618BF52EA43067FF4C5AE50EA57
:100CA00041047FF40DAF52EA43057FF4EBAE12E747
:100CB0004FF0FF3C06E000BF4FF0010C02E000BF28
:100CC0004FF0010C4DF804CD4FEA410C7FEA6C5C0B
:100CD0004FEA430C18BF7FEA6C5C1BD001B050EAAE
:100CE000410C0CBF52EA430C91EA030F02BF90EA99
:100CF000020F0020704710F1000F91EA030F58BF58
:100D0000994208BF90422CBFD8176FEAE37040F0B9
:100D1000010070474FEA410C7FEA6C5C02D150EA57
:100D2000013C07D14FEA430C7FEA6C5CD6D152EA12
:100D3000033CD3D05DF8040B704700BF84461046D7
:100D400062468C461946634600E000BF01B5FFF7D6
:100D5000B7FF002848BF10F1000F01BD4DF808EDA6
:100D6000FFF7F4FF0CBF012000205DF808FB00BF77
:100D70004DF808EDFFF7EAFF34BF012000205DF8D1
:100D800008FB00BF4DF808EDFFF7E0FF94BF01201E
:100D900000205DF808FB00BF4DF808EDFFF7CEFF1F
:100DA00094BF012000205DF808FB00BF4DF808ED5E
:100DB000FFF7C4FF34BF012000205DF808FB00BF2F
:100DC0004FEA410C7FEA6C5C02D150EA013C0AD147
:100DD0004FEA430C7FEA6C5C02D152EA033C02D139
:100DE0004FF0000070474FF0010070474FEA41029A
:100DF00012F5001215D211D56FF47873B3EB62526D
:100E000012D94FEAC12343F0004343EA505311F093
:100E1000004F23FA02F018BF404270474FF0000025
:100E2000704750EA013005D111F0004008BF6FF063
:100E3000004070474FF00000704700BF53B94AB9F7
:100E4000002908BF00281CBF4FF0FF314FF0FF30D2
:100E500000F07AB9ADF1080C6DE904CE00F006F8A7
:100E6000DDF804E0DDE9022304B070472DE9F04726
:100E70008C460D460446089E002B51D18A421746E7
:100E80006DD9B2FA82FEBEF1000F0BD0CEF1200C6C
:100E900001FA0EF520FA0CFC02FA0EF74CEA050CEA
:100EA00000FA0EF44FEA174A250CBCFBFAF81FFAB9
:100EB00087F90AFB18CC45EA0C4508FB09F3AB425D
:100EC0000AD9ED1908F1FF3280F02381AB4240F2DC
:100ED0002081A8F102083D44ED1AA4B2B5FBFAF056
:100EE0000AFB105544EA054400FB09F9A14509D95C
:100EF000E41900F1FF3380F00A81A14540F2078137
:100F000002383C44A4EB090440EA08400021002ECA
:100F100061D024FA0EF4002334607360BDE8F087DA
:100F20008B4207D9002E54D0002186E821000846C4
:100F3000BDE8F087B3FA83F1002940F08E80AB4220
:100F400002D3824200F2FA80841A65EB0305012085
:100F5000AC46002E3FD086E81010BDE8F08712B9ED
:100F60000127B7FBF2F7B7FA87FEBEF1000F34D1C5
:100F7000EB1B3A0C1FFA87FC0121B3FBF2F8250C9E
:100F800002FB183345EA03450CFB08F3AB4207D9D3
:100F9000ED1908F1FF3002D2AB4200F2D180804659
:100FA000ED1AA3B2B5FBF2F002FB105543EA05447B
:100FB0000CFB00FCA44507D9E41900F1FF3302D271
:100FC000A44500F2B8801846A4EB0C0440EA08409F
:100FD0009DE731463046BDE8F087CEF1200405FAA2
:100FE0000EF307FA0EF720FA04F83A0C25FA04F487
:100FF00048EA0308B4FBF2F14FEA184502FB11443A
:101000001FFA87FC45EA044501FB0CF3AB4200FAEA
:101010000EF409D9ED1901F1FF3080F08A80AB425E
:1010200040F2878002393D44EB1A1FFA88F5B3FB82
:10103000F2F002FB103345EA034500FB0CF3AB4230
:1010400007D9ED1900F1FF386FD2AB426DD90238E4
:101050003D44EB1A40EA01418FE7C1F1200722FA33
:1010600007F88B4005FA01F448EA030320FA07FE6B
:101070004FEA134CFD404EEA040EB5FBFCF94FEA73
:101080001E440CFB19551FFA83F844EA054509FB79
:1010900008F4AC4202FA01F200FA01FA08D9ED189C
:1010A00009F1FF3043D2AC4241D9A9F102091D44F4
:1010B0002D1B1FFA8EFEB5FBFCF00CFB10554EEA03
:1010C000054400FB08F8A04507D9E41800F1FF35F6
:1010D00029D2A04527D902381C4440EA0940A4EB94
:1010E0000804A0FB02894C45C6464D4615D312D0D4
:1010F00056B1BAEB0E0364EB050404FA07F7CB40D4
:101100001F43CC40376074600021BDE8F08718466B
:10111000F8E69046E0E6C245EAD2B8EB020E69EB8B
:1011200003050138E4E72846D7E7404691E78146C2
:10113000BEE7014678E702383C4445E7084608E741
:10114000A8F102083D442BE7704700BF08B500F046
:10115000D5F80121084600F03BF900F005F9002818
:10116000FBD001223B21022000F072F9002000F0A8
:101170003FFA0121022000F02BF9192000F0E2F8DB
:101180000128FAD1002000F04BF9042000F058F9B2
:10119000042000F04DF9012000F01AFA022000F0BE
:1011A00085F900F08BF90228FBD1002000F010FA3D
:1011B00000F050FA08BD7047FEE7FEE7FEE7FEE7E5
:1011C0007047704770477047F0B583B007460121FC
:1011D000164800F0DEF80121154800F0DAF86846FC
:1011E00000F0F8FA01258DF8075000268DF804600C
:1011F00008238DF806304FF40073009304238DF814
:10120000053069460B4800F08FFA0B4C33463246E6
:101210003946204600F0E4FB2946204600F02DFC2C
:101220002946204600F024FC03B0F0BD0E00180053
:1012300002001800000801400038014008B50420F1
:1012400000F0F2FA074B1B68074AA2FB03239B0C32
:10125000064A136012684FF47A7303FB02F3044AE0
:10126000136008BD0000002083DE1B43D40900206A
:10127000D009002008B5FFF7E1FF08BD1AE0144BC4
:101280001B6803FB00F0134B58600020114B002239
:101290009A601A6842F001021A600E4B1B6803F054
:1012A0000113012BF9D00B4B1A6822F001021A60CE
:1012B00000229A6058B13228E1D9054B1A683223CE
:1012C00003FB02F3034A5360323880B2DEE7704713
:1012D000D009002010E000E038B50546002409E000
:1012E0004FF4FA70FFF7CAFF4FF4FA70FFF7C6FF2A
:1012F0000134A4B2AC42F3D338BD0000104A1368E5
:1013000043F0010313600E4B1B6813F0020FFAD079
:101310000B4B5A686FF301025A60094B5B6813F07C
:101320000C0FFAD1064B002159601A6822F0867220
:1013300022F480321A6019634FF41F029A607047DA
:1013400000100240030C03F1804303F504331A68D4
:1013500000F01F00012303FA00F030EA020301D07D
:10136000002070470120704710B5002400E00134D0
:101370001120FFF7E7FF012802D0B4F5405FF6D354
:101380001120FFF7DFFF012801D0002010BD012050
:1013900010BD01290ED0030C03F1804303F5043383
:1013A0001A6800F01F00012101FA00F022EA000093
:1013B00018607047030C03F1804303F504331A6887
:1013C00000F01F0001FA00F01043186070470000A1
:1013D000042821D8DFE800F003090F151B000F4B8C
:1013E0001A6861F300021A6070470C4B1A6861F3C7
:1013F00010421A607047094B1A6861F318621A604C
:101400007047064B1A6A61F300021A627047034B79
:101410005A6A61F300025A62704700BF001002402E
:10142000024B5A6860F307125A607047001002407E
:10143000024B5A6860F30A225A607047001002405B
:10144000024B5A6860F3CD225A6070470010024088
:1014500010B4E8B104461448436843F48033436051
:10146000012C1BD01048436843F4003343600E4BFB
:10147000586861F395405860C1F30111586861F3F1
:101480005E705860596862F3DF71596010BC704734
:10149000054B58686FF310405860E8E70346406812
:1014A0006FF351405860E2E700100240024B5A6867
:1014B00060F301025A60704700100240024B586806
:1014C000C0F38100704700BF0010024010B5044611
:1014D000FFF7F4FF012815D020B102283AD0344B91
:1014E000236011E0334B5B6D13F4007F07D0314B69
:1014F0001B6B13F0007F02D02F4B236004E02C4BBA
:10150000236001E02A4B23602A494B68C3F303138D
:101510002A4AD25C2368D34063604A68C2F302223D
:101520002748825C23FA02F2E2604A68C2F3C222D0
:101530002448825CD340A3604868C0F300704A68C6
:10154000C2F3813242EA80021F498A5CB3FBF2F3A4
:10155000236110BD174A5168C1F300415368C3F3BA
:1015600083435268C2F341721AB90F2B01D0023380
:1015700002E003EB0213013381B10E4A526812F408
:10158000003F10D00B4A526DC2F30132911C084A41
:10159000B2FBF1F202FB03F32360B5E70B4A02FB57
:1015A00003F32360B0E7024A02FB03F32360ABE7D7
:1015B00000127A0000100240006CDC02385700086C
:1015C00028570008305700082057000800093D0040
:1015D000012805D0054B5A6D6FF305125A65704707
:1015E000024A536D43F030035365704700100240C8
:1015F000024B5A6D60F30D325A657047001002407D
:10160000124A136843F001031360104B1B6813F078
:10161000020FFAD00D4B5A686FF301025A600B4B60
:101620005B6813F00C0FFAD1084B002159601A685F
:1016300022F0867222F480321A6019634FF41F027E
:101640009A604FF00062024B9A60704700100240AF
:1016500000ED00E008B5FFF731FF012818D028B1F0
:10166000022823D02A4A2B4B1A6014E02A4B5B6DC8
:1016700013F4007F08D0284B1B6B13F0007F03D0BE
:10168000264A244B1A6006E0214A224B1A6002E0E7
:101690001F4A204B1A60204B5B68C3F30313204A98
:1016A000D15C1C4A1368CB40136008BD1A4A5168CC
:1016B000C1F300415368C3F383435268C2F34172DC
:1016C0001AB90F2B01D0023302E003EB02130133EE
:1016D00089B1114A526812F4003F12D00E4A526D7D
:1016E000C2F30132911C0A4AB2FBF1F202FB03F38E
:1016F000084A1360CFE70B4A02FB03F3054A136065
:10170000C9E7034A02FB03F3024A1360C3E700BFC1
:1017100000127A000000002000100240006CDC0281
:101720004857000800093D00F0B40A6896B28B796A
:10173000032B1FD05BB94B7903F00F01182B04D09A
:10174000282B0ED193B243610BE0066109E00D79BD
:10175000CC7903F0080105F00403194304F00303F6
:10176000194397B212F0FF0F1BD1FF2E30D9360A62
:10177000002319E00021F4E70133072BF5D847FADD
:1017800003F212F0010FF7D004689A000F2595407C
:1017900024EA05040460046801FA02F222430260AC
:1017A000EAE70023E9E70133072B11D846FA03F2F1
:1017B00012F0010FF7D044689A000F25954024EAF3
:1017C00005044460446801FA02F222434260EAE7F9
:1017D000F0BC70474FF6FF73036000238371037101
:1017E000042343710123C371704730B4020E02F128
:1017F000804202F58032C0F30723C3F12003C0F317
:1018000007455C1B4FF0FF33A340E340EB40AB4088
:10181000146824EA0303136019B1C0B2A84003435B
:10182000136030BC70470000042805D0054A1368D7
:1018300023F0040313607047024A136843F0040363
:101840001360704710E000E0036861F30003036079
:1018500070470023037043708370C370037143713A
:1018600083717047C1628262436943F0010343613F
:101870007047036861F3092303607047036861F3ED
:10188000061303607047000070B4547801F1080338
:1018900004FA03F3947801F10905AC40364DA842EF
:1018A00013D005F50065A8420FD044689BB224EA26
:1018B00003044460446823434360062913D8DFE8E7
:1018C00001F00D123C12421248004568A4B225EA0C
:1018D0000405456045682C434460E6E71478836955
:1018E00064F306138361D3784E00741CA34015790A
:1018F000F41CA540204CA04231D004F50064A04265
:101900002DD09BB2046A24EA030423430362547972
:10191000B44092790131490002FA01F1164A90422D
:1019200024D002F50062904220D0A3B2026A22EADB
:1019300003021343036270BC70471478836964F335
:101940000E338361CFE71478C36964F30613C36170
:10195000C9E71478C36964F30E33C361C3E7ADB25A
:10196000046A24EA050425430562CAE789B223EA2A
:1019700001030B430362D8E7002C014006290CD871
:10198000DFE801F0040B060B080B0A004263704706
:1019900082637047C263704702647047036861F3F3
:1019A000C71303607047062918D8DFE801F0041751
:1019B00009170E171300836962F3C303836170472D
:1019C000836962F3CB2383617047C36962F3C30306
:1019D000C3617047C36962F3CB23C36170470000E2
:1019E000F0B587B004460F4616461D4601A8FFF71E
:1019F0006DFD1D4B9C422FD003F520539C422BD0F4
:101A000003F580639C4227D003F580639C4223D07A
:101A1000049B03EB83035900B1FBF7F1134BA3FBCA
:101A20000123DB0803EB83035A008B1A042B15D91F
:101A30000E4BA3FB0131C908013189B2A36861F3E0
:101A40000F03A360E36866F30C33E360236965F377
:101A50000D33236107B0F0BD039BDAE7034BA3FB13
:101A60000131C908E9E700BF00380140CDCCCCCC3A
:101A7000C36861F34D33C3607047C36861F3C30348
:101A8000C3607047C1F308014160704703680B42AF
:101A900001D1002070470120704700000FB4F0B55D
:101AA00083B008AB53F8042B0193FF210D4800F0DD
:101AB000CDF90746002425460DE080210A48FFF7AE
:101AC000E5FF0028F9D06E1C064B595D0648FFF76C
:101AD000D9FF01343546A742EFD803B0BDE8F04046
:101AE00004B07047D80900200038014008B5012132
:101AF0004FF4C010FFF74DFC01214FF4E010FFF749
:101B000048FC01210548FFF744FC01210448FFF788
:101B100040FC01210348FFF73CFC08BD020018000F
:101B2000030018000400180000B583B06846FFF7F2
:101B300051FE4FF48163009300238DF80430042399
:101B40008DF8053008238DF8063001238DF8073015
:101B500069460B48FFF7E8FD48F207030093694622
:101B60000848FFF7E1FD4FF40053009310238DF870
:101B7000063069460448FFF7D7FD03B05DF804FB63
:101B8000000C0140000801400010014080B5FFF743
:101B9000DDFAFFF76FFBFFF7A9FFFFF7C5FF4FF473
:101BA000E130FFF711FB3848FFF778FF0121374894
:101BB000FFF71BFE01213648FFF717FE052240F212
:101BC000E7314FF08040FFF74DFE00214FF080409D
:101BD000FFF754FE00214FF08040FFF74AFE2D4CE6
:101BE0002046FFF736FE0723237000266670E67056
:101BF00001256571224631464FF08040FFF744FED3
:101C0000254F3A8831464FF08040FFF7B7FE2A460D
:101C100031464FF08040FFF7C6FE224602214FF0CA
:101C20008040FFF731FE3A8802214FF08040FFF7F5
:101C3000A5FE2A4602214FF08040FFF7B4FE22465F
:101C400004214FF08040FFF71FFE3A8804214FF037
:101C50008040FFF793FE2A4604214FF08040FFF7B3
:101C6000A2FE29464FF08040FFF798FE29464FF02C
:101C70008040FFF7E9FD094AD36883F40053D3603D
:101C80000120FFF729FBF6E7585700080302042458
:101C900002031030100B002004000020001001404F
:101CA000002103E00B4B5B58435004310A480B4BB7
:101CB00042189A42F6D30A4A02E0002342F8043B53
:101CC000084B9A42F9D3FFF79BFC00F00FF8FFF79F
:101CD0005DFF7047045A000800000020B40900208E
:101CE000B40900201C0B0020FEE7000070B50F4E69
:101CF0000F4D761BB61018BF002405D0013455F8DF
:101D0000043B9847A642F9D10A4E0B4D761B03F0CF
:101D1000FBFCB61018BF002406D0013455F8043B74
:101D20009847A642F9D170BD70BD00BFF8590008B0
:101D3000F8590008005A0008F859000870B48607DE
:101D400046D0541E002A41D0CAB2034602E014F124
:101D5000FF343BD303F8012B9D07F8D1032C2ED978
:101D6000CDB245EA05250F2C45EA054519D903F101
:101D700010022646103E0F2E42F8105C42F80C5C12
:101D800042F8085C42F8045C02F11002F2D8A4F1B7
:101D9000100222F00F0204F00F041032032C13443F
:101DA0000DD91E462246043A032A46F8045BFAD8A7
:101DB000221F22F003020432134404F003042CB166
:101DC000C9B21C4403F8011B9C42FBD170BC704794
:101DD00014460346C2E700BF70B5141E9AB005460C
:101DE0002EDB1A464FF4027300910491ADF80C30CB
:101DF00011D0013C4FF6FF761E9B02946946059474
:101E0000ADF80E6000F05CF8421C12DB009B002273
:101E10001A701AB070BD1E9B02944FF6FF76694689
:101E20000594ADF80E6000F04BF8431C04DB1AB0CB
:101E300070BD8B232B60E9E78B232B601AB070BD3C
:101E40008B2303604FF0FF30F1E700BF10B582B085
:101E5000054C0093246813460A4601462046FFF7C6
:101E6000BBFF02B010BD00BF08000020024B13B141
:101E7000024800F005B87047000000008D1E000801
:101E8000002301461A46184601F040BA38B50A4CFC
:101E90000A4D641BA4100AD004F18043013B05EBFA
:101EA0008305013C55F804399847002CF9D1BDE869
:101EB000384003F02FBC00BF045A0008005A000845
:101EC0002DE9F04FC3B00C460B9192460F930C9046
:101ED00002F02CFA03681A931846FEF7B1FAA389A8
:101EE0001990190603D52369002B01F00180002306
:101EF0000DF1C80913931493159327932693189300
:101F00001B930993CDF89490C846169317939AF8AB
:101F100000305446E3B1252B02D119E0252B03D024
:101F200014F8013F002BF9D1A4EB0A0585B1269BDB
:101F3000279AC8F800A001332A44072BC8F8045098
:101F4000279226937FDC08F10808099B2B4409930C
:101F50002378002B7FD000231A468DF8773019465E
:101F60000D939B464FF0FF3063780A9004F1010A0D
:101F70000AF1010AA3F12000582800F2C083DFE82B
:101F800010F03802BE03BE034002BE03BE03BE0310
:101F9000BE03BE03BE0345020302BE035D006B0227
:101FA000BE0386029C039C039C039C039C039C032E
:101FB0009C039C039C03BE03BE03BE03BE03BE037F
:101FC000BE03BE03BE03BE03BE0337035703BE03F7
:101FD0005703BE03BE03BE03BE039703BE03BE0387
:101FE000AC03BE03BE03BE03BE03BE035902BE0361
:101FF000BE031E03BE03BE03BE03BE03BE03BE0379
:10200000BE03BE03BE03BE03C602DB025703570373
:1020100057038B02DB02BE03BE039002BE039D0288
:10202000CC01B4020802BE03E101BE037E00BE0380
:10203000BE030D020D980F9340420D904BF0040B20
:102040009AF8003094E725AA0B990C9802F03CFF0F
:1020500040B9C84679E7279B23B10C980B9925AA6C
:1020600002F032FF0B9B9B8913F0400F099B18BFB6
:102070004FF0FF330993099843B0BDE8F08F1BF090
:10208000200F119340F0DD810F9A1BF0100F1346C3
:1020900040F06C851BF0400F00F068851488043216
:1020A000002501230F9200278DF877700A994A1CAA
:1020B00000F065822BF08002079254EA050240F09E
:1020C0006482002940F03984002B40F0D4841BF056
:1020D00001030E9300F0028642AE302306F8413D24
:1020E0000A9B0E9A9342B8BF13460893002312939B
:1020F00017B1089B01330893079B13F00203109359
:1021000002D0089B02330893079B13F0840540F02C
:102110000D830D9B089AA3EB020BBBF1000F40F35C
:102120000583BBF1100F279C269A29DD43462146E3
:10213000A84610270C9C0B9D06E0ABF1100BBBF1E1
:10214000100F03F1080318DD0132B7482692103151
:10215000072A279183E88100EFDD25AA294620463A
:1021600002F0B2FE00287FF47DAFABF1100BBBF1A3
:10217000100F2799269A4B46E6DC45460C469846B2
:102180000132A94B26925C44072A279488E8080864
:1021900000F395849DF8777008F1080877B1269BC5
:1021A000013301340DF177010122072B2794269387
:1021B00088E8060000F3D88308F10808109B6BB18B
:1021C000269B013302341EA90222072B2794269353
:1021D00088E8060000F3D38308F10808802D00F09A
:1021E00013830A9B0E9A9F1A002F36DD102F269B11
:1021F0008E4D27DD42462146B0464FF0100B2E464D
:102200000C9C0B9D04E0103F102F02F1080215DD1D
:1022100001331031072B2791269382E84008F2DD25
:1022200025AA2946204602F04FFE00287FF41AAF67
:10223000103F102F2799269B4A46E9DC35460C466D
:102240004646904601333C44072B2794269388E862
:10225000A00000F37E8308F10808079BDF0500F16A
:102260006782269B0E99C8F8006001330C44072B47
:102270002794C8F80410269300F34A8308F108084D
:10228000079B5B073AD50D9B089A9D1A002D35DDFB
:10229000102D269B20DD10260C9FDDF82CB004E0CD
:1022A000103D102D08F1080816DD01335E4A269313
:1022B0001034072B279488E84400F1DD25AA5946FD
:1022C000384602F001FE00287FF4CCAE103D102D00
:1022D000279C269BC846E8DC0133534A26932C44AE
:1022E000072B279488E8240008DD25AA0B990C9871
:1022F00002F0EAFD00287FF4B5AE279C099B0D9AF9
:1023000008998A42ACBF9B185B180993002C40F0D7
:102310000A8300232693C846F9E511931BF0200396
:1023200040F0E2811BF0100240F02C841BF04003CF
:1023300000F028840F9913460A4604320C880F9245
:102340000025B0E60F9A1193166800248DF87740A7
:10235000151D002E00F0A5860A9A531C00F0078672
:1023600021463046FDF764FF002800F0DF86831B1E
:102370000E930A940F95CDF81CB023EAE3730893EB
:1023800012949DF87770B3E69AF8003001222B2161
:10239000EEE54BF0200B9AF80030E9E51193002AA6
:1023A00040F08D87224B18931BF0200F40F01181D5
:1023B0000F9A1BF0100F134640F0DF831BF0400F05
:1023C00000F0DB83043314880F9300251BF0010F0A
:1023D00000F00C8154EA050300F0088130239DF8D9
:1023E00044208DF878308DF879204BF0020B0223D1
:1023F00059E69AF8003000297FF4BAAD0122202175
:10240000B6E54BF0010B9AF80030B1E50F9C23685C
:102410000D9318460028234603F10403FFF60AAE85
:102420000F939AF80030A3E5AC570008BC5700089A
:102430008C5700084BF0100B1BF0200F11933FF44A
:1024400023AE0F9D073525F0070303F10802D3E9FA
:1024500000450F92012326E69AF800302A2B0AF154
:10246000010400F01F87A3F130000928A24600F202
:10247000AB8600231C461AF8013B04EB840400EBF6
:102480004404A3F130000928F5D90A9472E54BF011
:10249000800B9AF800306BE54BF0400B9AF8003057
:1024A00066E59AF800306C2B03BF9AF801304BF0C8
:1024B000200B0AF1010A4BF0100B59E5002A40F0FD
:1024C00009871BF0200F40F0F7841BF0100F40F03D
:1024D000AA841BF0400F00F0A6840F9A1368043200
:1024E0000F92BDF824201A8011E50F99B24B0C68A9
:1024F00018933022782304318DF8793011934BF002
:10250000020B0F9100258DF878200223CBE50F995F
:1025100011930A688DF8A02000230A461F468DF803
:102520007730043201230893CDF81CB00A97129734
:102530000F920E9328AEDFE51193002A40F0E28659
:102540001BF0200F5DD11BF0100F40F006831BF035
:10255000400F00F002830F99B1F900400431E517F4
:1025600022462B460F91002A73F1000358DB0A998B
:102570009DF877704A1C4FF001037FF49BAD54EA3D
:10258000050200F0DC81CDF81CB0012B00F0788250
:10259000022B40F0038218984E46230904F00F01E5
:1025A00043EA05732A091C461546435C06F8013DBB
:1025B00054EA0503F1D1A9EB06030E9390E51193BC
:1025C000002A40F09B867D4B18931BF0200F3FF4B0
:1025D000EFAE0F9D073525F0070303F108021BF04E
:1025E000010F0F92D3E900457FF4F4AE02235AE5C0
:1025F0001193002A40F07E864BF0100B1BF0200F49
:10260000A1D00F9D073525F00705D5E90023002A45
:1026100005F108011D4673F100030F911446A6DA77
:102620002D27644265EB45058DF8777001233DE564
:102630001193002A40F05A860F9D073525F00703B5
:1026400003F108020F921A6814925B681593159BA8
:10265000149D23F00044284621464FF0FF32584B8A
:10266000FEF7AEFB002840F04883284621464FF095
:10267000FF32534BFEF786FB002840F03E8314A840
:102680000FC8FEF775FB002840F02F859DF8777086
:102690004C4E4D4B2BF080000790119803220021E7
:1026A00008920A914728D8BF1E460E9212911FE544
:1026B0004BF0080B9AF800305AE4A3F130000023E5
:1026C0001C461AF8013B04EB840400EB4404A3F11C
:1026D00030000928F5D90D944CE44BF0100B119300
:1026E0001BF020033FF41EAE0F9D073525F00703B6
:1026F00003F10802D3E900450F920023D3E41193BC
:10270000002A40F0E085119A002A3FF4A4AC00238F
:1027100001211F4608918DF8A020CDF81CB08DF83E
:1027200077300A9312930E9128AEE5E4279C35E5A5
:10273000119B652B40F3A68014A80FC8FEF70EFB73
:10274000002800F04F81269B204AC8F80020013362
:1027500001340122072B27942693C8F8042000F3A4
:102760006A8308F108081F9B139A279C934203DB96
:10277000079BDD077FF584AD269B19991A9AC8F847
:10278000002001330C44072BC8F80410279426932B
:1027900000F39E8308F10808139B5E1E002E7FF74E
:1027A0006FAD102E269B0A4D40F3F581224610276F
:1027B000DDF830B00B9C13E08C5700087857000808
:1027C000FFFFEF7F6C57000868570008A857000804
:1027D000BC57000808F10808103E102E40F3DA81BB
:1027E00001331032072B2792269388E8A000F1DDF1
:1027F00025AA2146584602F067FB00287FF432AC38
:10280000279A269BC846E7E70D9B089A9F1A002F38
:102810007FF7E7AC102F269BB64D27DD42462146B9
:10282000B0464FF0100B2E460C9C0B9D04E0103F61
:10283000102F02F1080215DD01331031072B27910B
:10284000269382E84008F2DD25AA2946204602F0B8
:102850003BFB00287FF406AC103F102F2799269BE6
:102860004A46E9DC35460C464646904601333C4430
:10287000072B2794269388E8A00000F3328208F102
:102880000808AEE4139B269F012B40F3FE8101371D
:1028900001340123072F27942697C8F80060C8F851
:1028A000043000F3038208F10808199A1A9BC8F84B
:1028B000003001371444072F27942697C8F80420C6
:1028C00000F3008208F1080814A80FC8FEF746FAC2
:1028D000139B002840F00181013B013701361C4465
:1028E000072F26972794C8F80060C8F8043000F333
:1028F000288108F108081B9AC8F8042001371444FD
:1029000021AB072F27942697C8F800307FF7B6AC85
:1029100025AA0B990C9802F0D7FA00287FF4A2ABF5
:10292000279CC846ACE425AA0B990C9802F0CCFA77
:1029300000283FF4EEACFFF795BBDDF81CB0012B8F
:1029400000F03581022B25D1CDF81CB000240025E4
:1029500021E625AA0B990C9802F0B6FA00287FF41C
:1029600081AB279CC84678E425AA0B990C9802F005
:10297000ABFA00287FF476AB279CC8461EE425AA54
:102980000B990C9802F0A0FA00287FF46BAB279CFF
:10299000C84623E4CDF81CB000240025494600E0D9
:1029A0003146E20842EA4572E80804F007030546AA
:1029B0001446303354EA050201F8013C01F1FF36B8
:1029C000EED1079AD2077FF5F6AD302B3FF4F3AD89
:1029D0000239302306F8013CA9EB01030E930E46A1
:1029E000FFF77EBB1F99002940F32F82129B139A99
:1029F0009342A8BF1346002B1F460DDD269BC8F847
:102A0000006001333C44072B2794C8F804702693D8
:102A100000F3208308F10808129B002FA8BFDB1BDE
:102A2000002B1F4640F3D780102F269B314D40F3DB
:102A3000EE8142462146B0464FF0100B2E460C9CCC
:102A40000B9D04E00832103F102F40F3DC8101336E
:102A50001031072B2791269382E84008F2DD25AA42
:102A60002946204602F030FA00287FF4FBAA279975
:102A7000269B4A46E7E70A9B0E934E46FFF730BB7C
:102A8000002D08BF0A2CC0F090804E4620462946F3
:102A90000A220023FEF7D2F9303206F8012D204633
:102AA000294600230A22FEF7C9F904460D4654EAD6
:102AB0000503EBD1A9EB06030E93FFF711BB25AA83
:102AC0000B990C9802F000FA00287FF4CBAA9DF82D
:102AD0007770279CC846FFF761BB5E1E002E7FF70C
:102AE0000AAF102E034D23DD22464FF0100B0C9C35
:102AF00007E000BFBC570008103E102E08F1080880
:102B000015DD01371032072F2792269788E8200815
:102B1000F2DD25AA0B99204602F0D6F900287FF4B1
:102B2000A1AA103E102E279A269FC846E9DC14461B
:102B300001373444072F2794269788E860007FF7F1
:102B4000D8AE25AA0B990C9802F0BEF900287FF4A4
:102B500089AA279C269FC846CDE60F9A146813467B
:102B60000433E5170F9322462B46FCE404321C681D
:102B70000F9201230025FFF796BA1C6804330F93C8
:102B8000002523E40F990A4604320C680F920025B1
:102B9000FFF789BA144601333444072B2794269350
:102BA00088E860007FF76AABB2E6DDF81CB0CDF8CC
:102BB0001CB042AE3034012306F8414D0E93FFF7AE
:102BC0008FBA25AA0B990C9802F07EF900287FF4A1
:102BD00049AA279CC8461F9A139B9A4244DB079B2D
:102BE000D90741D4139B12989A1A1D1A9542A8BF6F
:102BF0001546002D0EDD2699C8F804500131064413
:102C00002C440729C8F800602794269100F33B82E2
:102C100008F10808002DACBF561B1646002E7FF7A2
:102C20002FAB102E269BB04DB5DD22461027DDF8C8
:102C300030B00B9C04E008F10808103E102EA9DD0E
:102C400001331032072B2792269388E8A000F2DD8B
:102C500025AA2146584602F037F900287FF402AA37
:102C6000279A269BC846E8E7269B19981A99C8F820
:102C7000001001330444072B2794C8F8040026935E
:102C800000F3F58108F10808ACE7079BDA073FF588
:102C9000FEAD013701340123072F27942697C8F88A
:102CA0000060C8F804307FF724AE4AE725AA0B99E4
:102CB0000C9802F009F900287FF4D4A9279C269FDC
:102CC000C846F2E525AA0B990C9802F0FDF80028F9
:102CD0007FF4C8A9279C269FC846F5E54E46FFF716
:102CE000FFB925AA0B990C9802F0EEF800287FF4A2
:102CF000B9A9279CC846FFF774BA149C22462046FF
:102D0000159C23462146FEF75BF8002840F086829A
:102D10000A9B0133119B23F020030E9300F0E28104
:102D2000472B00F01E814BF480730793159B1F1EE9
:102D3000149B0893BBBF3B4603F1004700232D23A0
:102D40001093119B662B00F0BB81462B00F0DF80B7
:102D50000E9B089A452B0CBF0A9B0A9D23A820A90D
:102D600008BF5D1C049003911FA802213B460290FE
:102D7000019500910C9800F0AFFB119B672B064664
:102D800040F0E0811BF0010F00F046827419169AA2
:102D90000898179B3946FDF7E1FF002840F0658150
:102DA000239BA34206D230215A1C23921970239BE5
:102DB0009C42F9D89B1B13930E9B472B00F0E98094
:102DC000119B652B40F3CD81119B662B1F9B1293AA
:102DD00000F09E81139B129A1946914200F38A815A
:102DE0001BF0010F40F0138222EAE273089367237D
:102DF0000E921193109B002B40F0C4800A939DF813
:102E00007770FFF775B935460C4646469046013354
:102E10003C44072B2794269388E8A0003FF7D1AEC7
:102E200008F10808D7E60F9A136804320F92099A3E
:102E30001A60FFF76CB825AA0B990C9802F044F8B9
:102E400000287FF40FA9C8468DE4269B274AC8F8BE
:102E50000020013301340122072B27942693C8F860
:102E6000042072DC08F1080829B9139B1BB9079BE1
:102E7000D8077FF505AA269B19981A9AC8F800204A
:102E8000013302462244072B2792C8F804002693F8
:102E900000F38D8108F108080029C0F265811399BB
:102EA000C8F8006001338C18072B27942693C8F8C4
:102EB00004107FF7E3A92BE50F9A09991368CD1742
:102EC0000846043229460F92C3E90001FFF71FB8F4
:102ED00025AA0B990C9801F0F7FF00287FF4C2A8EF
:102EE000279CC84658E400BFBC570008A8570008F4
:102EF00040210C9801F028FA0B9A1060106100280C
:102F000000F0EC810B9A40235361FEF7F0BF23A839
:102F100020A90A9C049003911FA803210290089AFB
:102F200001943B4600910C9800F0D6FA25460646DF
:102F3000119B462B06EB05047FF429AF3378302B29
:102F400000F072811F9D2C4421E725AA0B990C9853
:102F500001F0BAFF00287FF485A81F99279CC84676
:102F600082E70A9B002B08BF01230A93DBE6304669
:102F70000A94FDF765FA0F950E90CDF81CB0034644
:102F8000FFF7FBB92D2700238DF877700A93FFF721
:102F9000B0B81F9B12931A46033304DB0A9B1946F1
:102FA0009142BFF617AF119B023B11939DF844303D
:102FB0008DF88430129B013B002B1F93BDBF129BE9
:102FC000C3F101032D222B22092B8DF8852040F31C
:102FD00016810DF193042046AD4D00E0104685FBAF
:102FE0000312D917C1EBA20101EB8102A3EB42024C
:102FF0003032092900F8012C0B4600F1FF32EDDCDC
:1030000030330238D9B2844202F8011C40F25F81A9
:103010000DF18600134601E013F8011B00F8011BB7
:10302000A342F9D101339B1A0DF18602134421AA60
:103030009B1A139A1B93012A13440E9340F3138196
:103040000E9B199A13440E9323EAE373089300230B
:103050001293CFE625AA0B990C9801F035FF0028B2
:103060007FF400A8279CC846D6E42346A2E625AAFA
:103070000B990C9801F028FF00287EF4F3AF1F9AFB
:10308000279CC846AEE525AA0B990C9801F01CFFB9
:1030900000287EF4E7AF1F9A139B279C9A1AC84614
:1030A000B8E50A9B1296062B28BF06230A963746D8
:1030B00008930F95CDF81CB00E93764EFFF718B815
:1030C00023A820A90A9D049003911FA80321029020
:1030D000089A01953B4600910C9800F0FDF90646D0
:1030E00044192BE706230A931DE62D278DF87770E8
:1030F000FFF7CEBA199A139B1344129A0E93002A23
:1031000040F3AA8023EAE37308936723119371E6DF
:10311000002B40F3B2800A9A002A40F093801BF003
:10312000010F40F08F8008930E9363E60A9B08938B
:103130000E930A900F95CDF81CB012909DF8777001
:10314000FEF7D6BF119B472B7FF420AE1BF0010F7B
:103150007FF4EEAE239B9B1B13930E9B472B3FF4F8
:1031600018AF1F9B129321E74F4210314A4D2FDABF
:103170001024DDF830B004E008F10808103F102FEB
:1031800026DD01331032072B27922693C8F8005012
:10319000C8F80440F0DD25AA0B99584601F094FECA
:1031A00000287EF45FAF279A269BC846E6E725AA4B
:1031B0000B990C9801F088FE00287EF453AF1F99FC
:1031C000279A269BC84667E600200A90FEF7D2BEE3
:1031D00001333A44072B88E8A0002792269308F190
:1031E00008087FF75CAE25AA0B990C9801F06CFEDD
:1031F00000287EF437AF279A269BC8464FE6303327
:1032000030228DF887308DF8862022AB0FE7129B95
:10321000199A13440E9375E7239BCBE51F4E204B61
:103220009DF87770FFF736BA169A0898179B3946BB
:10323000FDF794FD00287FF485AEC5F101051F95CB
:103240002C44A4E5129B199A13440A9A1A4422EAC0
:10325000E2730E920893CDE5129B0E9AC3F101031F
:103260001A441346D6E71BF0010312937FF4E8AE2D
:103270000E9B23EAE3730893BCE50A9B13B91BF08A
:10328000010F02D0199B0133DFE701234BE700BF99
:1032900067666666A0570008BC57000874570008A8
:1032A000705700080F9D9AF80130286840EAE070D6
:1032B0000A9028460430A2460F90FEF759BE8DF8BA
:1032C0007710FFF76FB88DF87710FFF71CBA0DF184
:1032D0008603ACE68DF87710FFF7F3B80C9A0C2351
:1032E00013604FF0FF330993FEF7C5BE8DF87710DA
:1032F000FFF7A2B98DF87710FFF77EB98DF8771038
:10330000FFF761B98DF87710FFF71AB92DE9F0478B
:10331000254C2568D5F84841064688469246994688
:10332000C4B360681F2817DC431C76B104EB80052A
:103330000122C5F888A0D4F8881182401143022EDA
:10334000C4F88811C5F808911ED00230636044F8B3
:1033500020800020BDE8F087144B03B34FF4C87001
:10336000AFF300800446D0B1D5F84831002780E89B
:103370008800C5F8484138460123C4F88871C4F86C
:103380008C71002EE1D0D1E7D4F88C110A43C4F837
:103390008C21DAE705F5A674C5F84841C1E74FF07E
:1033A000FF30BDE8F08700BF645700080000000050
:1033B00002690B69934200F38D802DE9F04F03F110
:1033C000FF3801F1140700F1140B57F828205BF8BF
:1033D00028304FEA880483B00132B3FBF2F90BEBDB
:1033E0000403009407EB040A0193B9F1000F39D0EC
:1033F00000252E46BC46DE465CF8044BDEF8003065
:10340000A2B209FB0255220C2C0C09FB0242ADB200
:10341000751B96B2C6EB134615FA83F306EB2346EB
:103420009BB243EA0643E2454FEA12454EF8043B9D
:103430004FEA2646E0D2009B5BF8033093B9019C2B
:10344000231F9B450CD254F8043C4BB9A4F108034C
:1034500002E01A68043B1AB99B4508F1FF38F8D31B
:10346000C0F81080044601F021FC00282EDB09F191
:1034700001095D46002357F8041B28688AB29A1A8E
:103480000B0C12FA80F2C3EB104303EB224392B20F
:1034900042EA0342BA4545F8042B4FEA2343EAD2F5
:1034A0005BF828200BEB880382B91A1F93450BD2D7
:1034B00053F8042C42B9083B02E01A68043B1AB9DD
:1034C0009B4508F1FF38F8D3C4F81080484603B094
:1034D000BDE8F08F002070472DE9F04F016C9BB0E4
:1034E0000446279E92469B4641B1426C4A600123A6
:1034F00093408B6001F002FA00232364BBF1000FBC
:103500005D4635DB002333609D4BAB4315D0504601
:10351000594600220023FDF721FC804600282DD0CB
:10352000269A01231360289B002B00F0BD8095484C
:10353000186001381BB0BDE8F08F269A42F20F7375
:103540001360BAF1000F0DD1C5F3130555B9289BCF
:103550008D48002BEED000F10803289A13601BB0B1
:10356000BDE8F08F289B8948002BE3D0C31CF4E70B
:1035700001232BF000453360AB46C5E718AA19AB11
:103580000192009352465B46204601F02FFC2B0D22
:10359000814671D0CBF3130242F07F51189FCDF8D2
:1035A00050805046A3F2FF3641F440110022784B80
:1035B000FCF7B8FF6CA3D3E90023FDF767F96CA310
:1035C000D3E90023FCF7B0FFCDE902013046FDF757
:1035D000F7F869A3D3E90023FDF758F902460B4633
:1035E000DDE90201FCF7A0FFCDE90401FDF7FEFBD8
:1035F000002202900023DDE90401FDF7B9FB002859
:1036000040F07381029D162D00F25D81614B03EB4A
:10361000C503D3E9000152465B46FDF7C7FB00280E
:1036200000F0C5816B1E029300230E93BF1B7B1E0F
:10363000069300F1548100230893029B002BC0F2F3
:103640004581069A0D9311461944002306910C9367
:10365000249B092B2AD8052B40F35B86043B24933B
:103660000025249B023B032B00F24286DFE813F087
:10367000D403C902DF036104189F199E3E4406F279
:103680003243202B40F38E81C3F1400306F21240F7
:103690009D402AFA00F02843FDF782F80123013EFD
:1036A000A1F1F871149381E73B4843E7002161647D
:1036B0002046259101F0FCF84FF0FF330A93259A3C
:1036C0000F9301230490206424920B93199B002BE9
:1036D000C0F2D980029A0E2A00F3D5802D4B03EB5D
:1036E000C203D3E90023CDE90823259B002BC0F2B8
:1036F000BA83DDE9085650462A4633465946FDF757
:10370000EFF9FDF773FB8046FDF75AF82A4633467A
:10371000FDF7BCF80B46024659465046FCF702FF3F
:10372000049D08F130032B700A9B012B06460F46BF
:1037300005F1010568D00022184BFDF7A7F800221B
:10374000002306460F46FDF709FB002840F088805D
:10375000CDF82C904FF0000ADFF840B00C94DDE972
:10376000088928E0AFF3008061436F63A787D23FE9
:10377000B3C8608B288AC63FFB799F501344D33F60
:103780000000F07FA9570008CC570008D857000860
:103790000000F83F08580008A8570008000024401F
:1037A000FDF774F80022002306460F46FDF7D6FA0F
:1037B000002840F0C18342464B4630463946FDF76B
:1037C0008FF9FDF713FB0446FCF7FAFF42464B4620
:1037D000FDF75CF802460B4630463946FCF7A2FE80
:1037E00004F1300E049E05F801EBA5EB060E0A9ECF
:1037F000B645CDE9060152465B46D1D1A046DDF87B
:103800002C900C9C06460F4632463B4630463946C5
:10381000FCF78AFE06460F4602460B46DDE9080124
:10382000FDF7A6FA48B932463B46DDE90801FDF747
:1038300095FAA8B118F0010F12D015F8018C049A6E
:103840006B1E04E09A4200F0018413F8018DB8F178
:10385000390F03F10105F5D008F1010883F8008064
:103860004946204601F04AF80022029B2A70269A17
:1038700001331360289B002B00F09E8304981D6089
:103880001BB0BDE8F08F0B9A002A3ED0249A012A83
:1038900040F311830A9B0C9A5F1EBA42C0F28F83D9
:1038A000D71B0A9B002BC0F28B84089D0A9B089AA9
:1038B0001A440892069A01211A442046069201F001
:1038C000B7F8064624E001230E93AFE6089A029B60
:1038D000D21A5B420C93002308920D93B8E6C7F10D
:1038E0000103089300230693A7E6029D2846FCF7F0
:1038F00067FF02460B46DDE90401FDF72FFA0028B9
:103900007FF480AE6B1E02937CE60C9F089D0B9E9D
:10391000002D0CDD069900290B4608DDA942089A06
:10392000A8BF2B46D21AED1ACB1A089206930C9B0D
:10393000D3B10B9B002B00F0B782002F10DD314676
:103940003A46204601F010F94A460146064620460E
:1039500001F078F849468046204600F0CFFFC14686
:103960000C9BDA1B40F0A1820121204601F060F897
:103970000D9B002B80461CDD01461A46204601F0B7
:10398000F3F8249B012B804640F3548200230C93D0
:10399000D8F8103008EB8303186900F0F9FFC0F184
:1039A000200010E0C3F120050AFA05F074E60E903D
:1039B0003CE6249B012B40F3878200230C930D9B54
:1039C0000120002BE4D1069A104410F01F0000F0F3
:1039D000A180C0F12003042B40F39E84089BC0F11A
:1039E0001C00034408931346034405440693089BB4
:1039F000002B05DD49461A46204601F005F98146AF
:103A0000069B002B05DD41461A46204601F0FCF8D6
:103A100080460E9B002B40F086800A9B002B40F3D3
:103A200066820B9B002B00F09880002D05DD31464F
:103A30002A46204601F0E8F806460C9B002B40F091
:103A4000378306960A9B049ADDF818B0013BD31819
:103A50000B930AF001030C931746C24651464846A1
:103A6000FFF7A6FC31460546484601F01FF95A46C5
:103A70000A905146204601F035F9C268804605F1AA
:103A80003003002A40F02B8201464846089301F09B
:103A90000DF941460690204600F030FF069A089B3B
:103AA00032B9249921B90C9A002A00F0EF83249AA4
:103AB0000A990029C0F29F8205D1249919B90C995D
:103AC000002900F09882002A00F306830B9A3B70CD
:103AD00007F101089742454600F00C834946002350
:103AE0000A22204600F014FF5E45814631464FF021
:103AF00000034FF00A02204600F0EB8100F008FFBF
:103B00005946064600230A22204600F001FF474698
:103B10008346A3E71C20089B03440893069B0344A9
:103B20000544069363E74146484601F0BFF8002884
:103B3000BFF673AF029F494600230A222046013F89
:103B4000029700F0E5FE0B9B8146002B40F0B68308
:103B50000F9B002B40F3BF830A93DDF810B00A9F40
:103B60005D4602E000F0D4FE814641464846FFF73C
:103B70001FFC00F1300A05F801ABA5EB0B03BB42BB
:103B80004FF00A024FF0000349462046EADB049B4F
:103B90000A9A012AACBF9B1801331D464FF0000B57
:103BA00049460122204601F02FF84146814601F0A6
:103BB0007DF8002840F33D8215F8012C04996B1E16
:103BC00004E08B4200F0AE8113F8012D392A03F195
:103BD0000105F6D001321A704146204600F08EFEF3
:103BE000002E3FF43DAEBBF1000F05D0B34503D02E
:103BF0005946204600F082FE3146204600F07EFE07
:103C00002EE600230B93029B259A13440F93013356
:103C1000012B1F461E460A93B8BF01270021172F0C
:103C200061640AD9012204235B0003F11400874276
:103C3000114602F10102F7D26164204600F038FE1D
:103C40000E2E049020643FF641AD002D3FF43EADB2
:103C500002990029CDE910AB40F30282B84B01F084
:103C60000F020D1103EBC203E906D3E9006740F12F
:103C7000AE81B44B50465946D3E90823FCF730FFD8
:103C8000CDE9120105F00F054FF0030A8DB1DFF801
:103C9000B482EA0709D530463946D8E90023FCF753
:103CA000F5FD0AF1010A06460F466D1008F10808F5
:103CB000EFD13B463246DDE91201FCF711FF074622
:103CC00088460E9B43B100229F4B38464146FDF784
:103CD0004FF8002840F086825046FCF771FD3A46C6
:103CE0004346FCF7D3FD994B0022FCF71DFC0A9BD1
:103CF0000546A1F15076002B00F03E81029B159302
:103D00000A9B12930B9B002B00F0FA81129A8C4BAA
:103D10008F4903EBC20353E902230020FCF7E0FEC6
:103D20002A463346FCF7FEFB82468B463846414620
:103D3000FDF75CF80546FCF743FD02460B463846A6
:103D40004146FCF7EFFB30355FFA85F8049D0646E7
:103D50000F4685F8008002460B465046594601350D
:103D6000FDF724F8002854D132463B46002076491E
:103D7000FCF7D8FB02460B4650465946FDF716F8AD
:103D8000002840F07082129A012A00F01181129BE3
:103D9000049ACDF84890134499460DE000206A49F2
:103DA000FCF7C0FB52465B46FCF7E2FF002840F000
:103DB00058824D4500F0FA80504659460022654B26
:103DC000FCF764FD0022634B82468B463046394641
:103DD000FCF75CFD0F460646FDF708F88046FCF749
:103DE000EFFC02460B4630463946FCF79BFB08F1D8
:103DF00030085FFA88F852465B4605F8018B0646A4
:103E00000F46FCF7B5FF32463B460028C6D0DDF82A
:103E10004890159B029323E500230B93259B002BD1
:103E200040F3DC801F461E460F930A93F6E60123FB
:103E30000B93F3E7BAF1000F7FF4A8ADCBF31303B4
:103E4000002B7FF4BAAD2BF000473F0D3F05002F4C
:103E500000F00D82089B01330893069B0133069303
:103E600001230C93ABE50A9B002B3FF742AC40F0DB
:103E700021820022384BDDE90801FCF707FD52469C
:103E80005B46FCF789FFDDF828804646002841D0D4
:103E9000259B049DDB4302934146204600F02EFD06
:103EA000002E3FF4DDACA7E60C9A4946204600F010
:103EB0005BFE814658E5149A002A00F0878103F2E0
:103EC00033430C9F089DF2E4BAF1000F7FF475AD07
:103ED000B4E700F01DFD474606468346BEE50146B1
:103EE0002046069300F00AFD0122069BE0E5249B94
:103EF000022B7FF796AD0A9B002BC9D141460522C4
:103F0000204600F005FD01468046484600F0CEFE02
:103F10000028BDDD029A04993123013202920B7010
:103F20004D1CB9E7029A01320292049A31231370B0
:103F300052E601230B9366E6DDF82C900C9C8FE48F
:103F400008580008E05700080000F03F00001C403F
:103F50000000E03F00002440000014405046FCF701
:103F60002FFC3A464346FCF791FC0022C14BFCF77C
:103F7000DBFA0546A1F1507641460022BE4B384699
:103F8000FCF7D0FA2A46334682468B46FCF70EFFF2
:103F90008046002840F010812A4606F10043504632
:103FA0005946FCF7E5FE18B1464671E7DDF8489042
:103FB000DDE910ABFFF78ABB0498FFF7BBBA0C9B97
:103FC0000D9A0C97FB1A1A440D92002769E4DDE95B
:103FD00010234FF0020ACDE9122357E600210123F6
:103FE00061642046259300F063FC259B04902064C7
:103FF0000A930F9329E6002AD046CDF818B09A46C6
:1040000011DD49460122204600F0FEFD4146814671
:1040100000F04CFE002840F34681BAF1390F00F061
:10402000068105F1310AB34687F800A07D1C069E83
:10403000D2E504D11AF0010F01D0BDE5154615F8FF
:10404000013C302B05F1FF32F8D0C5E50499302250
:104050000A70029A15F8018C01320292FFF7FCBB3C
:1040600000F0BB80029B5D42844B05F00F0203EB26
:10407000C203D3E90023DDE91001FCF707FC2D1191
:104080000746884600F02C817D4E4FF0020AEB0770
:1040900009D538464146D6E90023FCF7F7FB0AF17B
:1040A000010A074688466D1006F10806EFD108E6BA
:1040B0007168204600F0FCFB336902339A00054624
:1040C00006F10C010C30FCF703F9294601222046C9
:1040D00000F09AFD0690B5E4392BCDF818B0D04623
:1040E00000F0A58003F1010AB34687F800A07D1C0B
:1040F000069E71E55A46D046B3469A4616464FE5A7
:10410000129B5E4901EBC3012A46334651E9020185
:10411000FCF7BCFBCDE9160138464146FCF766FECC
:104120000546FCF74DFB0B46024641463846FCF778
:10413000F9F9129B0F4604993035012B0D70064694
:1041400001F1010526D0129B049ADFF83CB1CDF8AD
:10415000489013444FF0000A994652465B46304659
:104160003946FCF793FB0F460646FCF73FFE8046B8
:10417000FCF726FB08F1300802460B46304639466C
:10418000FCF7D0F905F8018B4D4506460F46E4D102
:10419000DDF848903B4B0022DDE91601FCF7C4F93D
:1041A00032463B46FCF7E4FD002846D0159B0293BF
:1041B00015F8018CFFF743BB4FF000084646A9E60F
:1041C000089B0A9A9D1A0023FFF771BB189B0C9F4E
:1041D000089DC3F13603FFF76ABBDDE910784FF0A5
:1041E000020A6EE50A9B002B3FF4B8AE0F9B002B32
:1041F0007FF7DEAE0022244B38464146FCF746FBF3
:10420000074688460AF10100FCF7DAFA3A464346C7
:10421000FCF73CFB0022174BFCF786F9029A0F9B38
:104220001293013A0546A1F1507615926AE53922BA
:10423000B3463A70069E7D1CC0E4DDE916230020DB
:104240001049FCF76FF932463B46FCF7AFFD08B961
:10425000AEE6154615F8013C302B05F1FF32F8D0DB
:10426000D7E5DDF84890159B0293FFF7E8BA0C9765
:10427000FFF7A5BB00001C400000144008580008D0
:10428000E05700080000E03F00002440392BCDF843
:1042900018B0D046DDF828B09A46C8D0BBF1000F60
:1042A0003FF7BFAEBFE67FF4BEAE1AF0010F3FF49A
:1042B000BAAEB2E64FF000084646E9E531460023C3
:1042C0000A22204600F024FB0F9B002B06460ADD45
:1042D0000A93FFF7AABB249B022B23DC0F9B3BE432
:1042E0004FF0020AEDE4249B022B1BDC0F9BEFE74F
:1042F000002565642946204600F0DAFA4FF0FF33C6
:104300000A930F9301230490259520640B93FFF7E4
:10431000DDB90125FFF7A5B93FF469ABC0F13C0059
:10432000FFF7F9BB0F9B0A93E5E500BF044A054B75
:104330001268506B002808BF1846F030704700BF65
:1043400008000020480800202DE9F04F01F10B067D
:10435000162E83B0054640F29E8036F0070600F127
:10436000BD80B14200F2BA8000F09EFAB6F5FC7F43
:10437000C0F09382730A00F0B880042B00F27981B8
:10438000B30903F1390003F1380EC300BF4F3B44BA
:10439000A3F108015C68A14206D10CE0002A80F27A
:1043A000AA80E468A14206D0636823F003039A1B45
:1043B0000F2AF3DD70463C69DFF8E4E2744500F053
:1043C000AB81636823F003039A1B0F2A00F39081EB
:1043D000002AC7F814E0C7F810E080F29D80B3F51A
:1043E000007F80F06181DB0803F1010C99107A688D
:1043F00057F83C80C4F8088001238B4007EBCC01C0
:1044000013430839E1607B6047F83C40C8F80C4032
:104410008210012494409C4200F28B801C4206D101
:1044200020F0030064001C4200F10400FAD007EB06
:10443000C009CC468046DCF80C309C4507D16DE1C4
:10444000002A80F27B81DB689C4500F06781596817
:1044500021F003018A1B0F2AF2DDD3F80CC0D3F838
:10446000088000939C19284646F0010642F0010599
:104470005E60C8F80CC0CCF808807C613C61C4F870
:104480000CE0C4F808E065605A5000F00FFA009B99
:1044900003F108041EE0102920D800F005FA1026C8
:1044A00018230220794F3B44A3F108025C68944230
:1044B00000F03D816368E168A66823F003032344AC
:1044C00028465A68F16042F001028E605A6000F09E
:1044D000EDF90834204603B0BDE8F08F00240C232A
:1044E00020462B6003B0BDE8F08F40204FF40073EE
:1044F0004FF03F0E4AE72344E1685A68A66842F04D
:104500000102F16028468E605A6000F0CFF908344D
:10451000204603B0BDE8F08F234428465A6842F095
:1045200001025A6000F0C2F90834204603B0BDE829
:10453000F08FBC68636823F00308B04504D3A8EB90
:1045400006030F2B00F38580DFF85891504BD9F804
:1045500000201B680132334404EB080A00F0558147
:1045600003F580530F3323F47F6B2BF00F0B594669
:10457000284600F097FC411C024600F0FC80824572
:1045800000F2F780434B19685944196000F04D81DF
:10459000D9F8000001301BBFA2EB0A0A5144C9F848
:1045A0000020196012F0070100F01581C1F1080028
:1045B000C1F580510244083102EB0B09C9F30B0924
:1045C000A1EB0909494628460193009200F06AFCD4
:1045D000431C9DE80C0000F04381801A484440F0E1
:1045E00001001968BA604944BC425060196017D094
:1045F000B8F10F0F40F2FB806068A8F10C0222F0C6
:10460000070204EB020E00F001004FF0050C10430E
:104610000F2A6060CEF804C0CEF808C000F21781FF
:104620001D4BBC681A68914288BF19601B4B1A6801
:104630009142626888BF196022F003029642A2EBA1
:10464000060301D80F2B04DC284600F02FF90024C4
:1046500040E7A21943F0010346F0010666602846D0
:10466000BA60536000F022F90834204603B0BDE878
:10467000F08F142B71D9542B00F2A380330B03F16C
:104680006F0003F16E0EC30080E600BF3804002007
:10469000080B0020D80A0020000B0020040B00208B
:1046A00040040020400800205A0A042A5BD9142A3A
:1046B00000F2AE8002F15C01C9005B3207EB010C35
:1046C0007958ACF1080C8C4500F088804A6822F0DB
:1046D0000302934273D289688C45F7D1DCF80C2031
:1046E0007B68E260C4F808C09460CCF80C408FE6A8
:1046F000A11946F0010C42F00106C4F804C0284696
:1047000079613961C1F80CE0C1F808E04E60E2500F
:1047100000F0CCF80834DDE67B6879E608F10108A2
:1047200018F0030F0CF1080C7FF485AE2DE0DC6867
:10473000A34208BF02303FF43EAEBBE619441C461C
:104740004A68DB6854F8086F42F001024A60284664
:10475000F3609E6000F0AAF8BCE603F15C0003F190
:104760005B0EC30012E69A0902F13901C900383222
:10477000A4E7BC4254D0BC68626822F003025DE743
:1047800059F80839994540F0868010F0030F00F180
:10479000FF30F5D17B6823EA04037B6064009C4210
:1047A0003FF6C7AE002C3FF4C4AE1C4240467FF437
:1047B0003EAE64001C4200F10400FAD037E68C469D
:1047C0008CE7B3F5AA7F15D8F30B03F1780003F15A
:1047D000770EC300DAE54FF48051EDE67B68921066
:1047E000012101FA02F213437B60624679E701235B
:1047F000536029E740F25452934222D8B30C03F19C
:104800007D0003F17C0EC300C0E503F1100BAEE6A2
:10481000542A29D81A0B02F16F01C9006E324DE7F4
:10482000204B196859441960B2E6CAF30B000028FE
:104830007FF4AEAE08EB0B03BA6843F0010353609C
:10484000EEE67F204FF47E734FF07E0E9EE504F17E
:1048500008012846009300F035FC009B1968DFE64C
:1048600001204FF00009BCE6B2F5AA7F05D8DA0BAB
:1048700002F17801C900773220E740F254518A42B0
:1048800005D89A0C02F17D01C9007C3216E74FF47D
:104890007E717E2212E77B6880E7F00806F108034C
:1048A00000E600BFD80A0020704700BF704700BF75
:1048B000C36C70B505460C464BB153F8240080B16B
:1048C000026843F8242000230361C36070BD2122E5
:1048D000042100F077FBE86403460028EDD10020B6
:1048E00070BD012101FA04F6721D2846920000F005
:1048F00069FB0028F3D044608660E4E731B1C36C03
:104900004A6853F82200086043F82210704700BF3D
:10491000F0B50C6983B00D46064601F1140E002770
:10492000DEF8000081B202FB0133010C180C02FB1F
:1049300001019BB2013703EB0143BC424EF8043B3B
:104940004FEA1143ECDC3BB1AA68944207DA05EB6D
:104950008402013453612C61284603B0F0BD6968BC
:10496000019301313046FFF7A3FF2A69023205F1B6
:104970000C01074692000C30FBF7AAFCF26C696848
:10498000019B52F82100286042F821503D46DEE7A5
:10499000020C12040346B2B90304102013F07F4F37
:1049A00004BF1B02083013F0704F04BF1B0104301A
:1049B00013F0404F04BF9B000230002B02DB5B0072
:1049C00003D4202070470020E8E70130704700BF83
:1049D000036813F00702014607D0DA0721D49807CD
:1049E00021D49B080B600220704798B298B1104602
:1049F00013F0FF0F04BF1B0A08301A0704BF1B097E
:104A000004309A0704BF9B080230DA0707D45B081A
:104A100004D1202070471B0C1020E9E701300B6007
:104A20007047002070475B080B600120704700BF93
:104A300010B50C460121FFF73BFF012244610261E2
:104A400010BD00BF2DE9F04F0C691569AC4283B071
:104A50008B46164604DA2246B3462C460E461546C9
:104A6000DBF80830DBF8041004EB05089845C8BFF4
:104A70000131FFF71DFF00F1140909EB880AD14548
:104A8000009005D24B46002143F8041B9A45FBD801
:104A900006F1140C0CEB85030BF1140B9C450BEB8E
:104AA000840E4CD2CDF804A09A46DCF80050AFB288
:104AB000EFB100214D465E460C4656F8042B28689F
:104AC00093B281B207FB0313120C010C234407FBC2
:104AD000021101EB13419BB243EA0143B64545F88D
:104AE000043B4FEA1144E8D82C60DCF800502D0C50
:104AF0001DD0D9F8003048461C46594600220E8881
:104B0000240C05FB064422449BB243EA024340F8CE
:104B1000043B51F8043B04681B0CA6B205FB03637D
:104B200003EB12438E454FEA1342E8D803600CF1C1
:104B3000040CE24509F10409B7D8DDF804A0B8F186
:104B4000000F0BDD5AF8043CAAF1040A1BB105E082
:104B50005AF8043D13B9B8F10108F9D10098C0F82A
:104B6000108003B0BDE8F08F12F003032DE9F0418F
:104B7000144607462ED10D46A4101CD0BE6C96B329
:104B8000E3074FF0000806D4641014D03068A8B1D1
:104B90000646E307F8D5324629463846FFF752FF66
:104BA000B5B16A68FB6C641053F82210296043F8B1
:104BB00022500546EAD12846BDE8F081324631460A
:104BC0003846FFF73FFF3060C0F800800646E0E758
:104BD0000546D9E75A1E0B4D002355F82220FFF752
:104BE00097FE0546C8E701213846FFF761FE40F20F
:104BF000712101220023416102610646B86403600D
:104C0000BEE700BFD05800082DE9F84391460A6975
:104C10008B684FEA691404EB020808F101059D4214
:104C20000E460746496804DD5B009D4201F1010123
:104C3000FADC3846FFF73CFE002C00F1140306DDD9
:104C400003EB8402002143F8041B9A42FBD1346930
:104C500006F1140119F01F0901EB840E1DD0C9F1F2
:104C6000200C00220C6804FA09F4144343F8044BA6
:104C700051F8042B8E4522FA0CF2F3D81A600AB1CF
:104C800008F10205FB6C7268013D53F822100561C2
:104C9000316043F82260BDE8F883043B51F8042BEF
:104CA00043F8042F8E45F9D8ECE700BF30B40B6908
:104CB00005460069C01A0FD19B0014351431194400
:104CC0002B4401E09D4207D253F8044D51F8042DC6
:104CD0009442F7D002D3012030BC70474FF0FF3030
:104CE000FAE700BF2DE9F0410F690E4611697F1AFE
:104CF000002F904617D1890006F1140502F1140E19
:104D00006B18714401E09D425CD253F8042D51F8B8
:104D1000044DA242F7D05ED233462C464646754635
:104D20009846012705E058DB06F1140508F1140444
:104D300000277168FFF7BCFDD8F810303669C760EE
:104D400004EB830CA64605EB860700F11404002350
:104D50005EF8041B55F8048B8AB213FA88F3090C29
:104D60009A1AC1EB184303EB224392B242EA034280
:104D7000F44544F8042B4FEA2343E9D8AF4217D94E
:104D8000A446AE465EF8042B13FA82F3191401EB25
:104D900012419BB243EA014277454CF8042B4FEA9B
:104DA0002143EFD8ED432F4427F0030704373C4459
:104DB000043C22B954F8043D013E002BFAD00661B0
:104DC000BDE8F0810021FFF773FD0122002302619D
:104DD0004361BDE8F0817446ABE7334606F1140445
:104DE00002F11405164601279846A2E72DE9F04185
:104DF00082B001211C46C3F30A571546089EFFF7EF
:104E000057FDC4F3130480460FB144F48014019499
:104E10001DB302A840F8085DFFF7DAFD002834D181
:104E20009DE80C00C8F81420002B0CBF01210221C2
:104E3000C8F81830C8F81010DFB908EB8103A0F2E9
:104E4000324030601869FFF7A3FD099BC0EB4110A9
:104E50001860404602B0BDE8F08101A8FFF7B8FD38
:104E6000019BC8F8143001212030C8F81010002F21
:104E7000E3D0099BA7F233470744C0F13500376000
:104E80001860404602B0BDE8F0819DE80A00C0F11C
:104E9000200203FA02F20A43C3400193C8F8142027
:104EA000C2E700BF38B5074C00230546084623601B
:104EB00000F01CFC431C00D038BD2368002BFBD045
:104EC0002B6038BD180B00202DE9F04F936883B09C
:104ED0009046002B70D082460C4617688D68086893
:104EE00042E0A38913F4906F2ED06569216905EB28
:104EF0004505A0EB010B05EBD5750BF101006D101D
:104F00003044A8422A4684BF05462A465B0538D568
:104F100011465046FFF718FA00283CD05A4621693E
:104F20000190FBF7D5F9A289019B22F4906242F02F
:104F30008002A281A5EB0B0203EB0B0065612361EC
:104F40002060A2603546B3465A46494600F0B6F99D
:104F5000D8F80830A2682068551B58449E1BA560ED
:104F60002060C8F808603EB37E683B460837002ED4
:104F7000FAD0AE42D3F80090AB46B2D23546B34633
:104F8000E2E7504600F0FEF903460028D2D121693D
:104F9000504600F097F80C23CAF80030A38900228D
:104FA00043F040034FF0FF30A381C8F80820C8F851
:104FB000042003B0BDE8F08F0020C8F8040003B05F
:104FC000BDE8F08F10B502FB01F1FFF7BDF9044613
:104FD000D8B150F8042C22F00302043A242A18D83D
:104FE000132A14D900231B2A0360436016D9242AEC
:104FF0008360C36011BF00F110020361436100F1DF
:1050000018020023136053609360204610BD0246CF
:10501000F7E70021FCF792FE204610BD00F10802E0
:10502000EFE700BFF8B5244F0C460646FFF73CFCFF
:10503000BB685D68C4F57E610F3125F00305294426
:1050400021F47F6121F00F01A1F58054B4F5805F58
:1050500007DB00213046FFF725FFBB682B44984251
:1050600004D03046FFF722FC0020F8BD61423046F4
:10507000FFF718FF01300DD0104BBA6819682D1BCF
:1050800045F001053046091B55601960FFF70EFC1D
:105090000120F8BD00213046FFF704FFBA68831AEB
:1050A0000F2BDEDD064C0549246843F00103001B8D
:1050B00053600860D5E700BF38040020D80A0020FC
:1050C00040080020002944D02DE9F0410D468046DB
:1050D000FFF7EAFB55F8047C694927F00103A5F1C5
:1050E0000804E2188E685068B24220F003005ED0D7
:1050F000FE0750600BD455F8087CE41B01F1080E44
:10510000A56875453B446DD0E768EF60BD60151834
:105110006D68ED073ED543F001026260E350B3F5E0
:10512000007F17D2DB08581C9A104D6851F8307078
:10513000A7600123934001EBC0022B43083AE260D1
:105140004B6041F83040FC604046BDE8F041FFF75D
:10515000ADBB70475A0A042A52D89A0902F139079E
:10516000FF0002F13805C819CA59083890424FD0DB
:10517000516821F003018B4232D292689042F7D1FC
:10518000C368A060E3609C60C4604046BDE8F04135
:10519000FFF78CBB95683B4FBD42034440D0D068BD
:1051A000E86043F0010285606260E350B7E7FF0703
:1051B000034407D455F8082CA41A1344A068E268E5
:1051C000C2609060304A126843F001009342606010
:1051D0008C60B9D32D4B40461968FFF723FFB3E726
:1051E0001046CDE711184968C90744D49168D268C0
:1051F000CA60034443F0010091606060E350A3E79C
:10520000142A16D802F15C07FF0002F15B05AAE739
:10521000AA1001234D6893402B434B600346B0E72F
:1052200043F001024C610C61E560A5606260E350EF
:105230008AE7542A06D81A0B02F16F07FF0002F121
:105240006E0590E7B2F5AA7F06D8DA0B02F178076F
:10525000FF0002F1770586E740F25450824206D8FB
:105260009A0C02F17D07FF0002F17C057BE74FF409
:105270007E777E2577E743F001016160136063E785
:10528000380400204004002044080020080B0020BF
:1052900082B049B15AB16BB113780B601278101C0F
:1052A00018BF012002B0704701A9002AF3D11046AF
:1052B00002B070476FF00100F4E700BF8842F0B51C
:1052C0000DD98B1898420AD28418002A51D0224650
:1052D00013F8014D02F8014D9942F9D1F0BD0F2AA2
:1052E00048D941EA00039B0746D100F1100401F1BF
:1052F0001003154653F8106C44F8106C53F80C6CFE
:1053000044F80C6C53F8086C44F8086C103D53F8E2
:10531000046C44F8046C0F2D03F1100304F1100425
:10532000E8D8A2F1100323F00F0302F00F0E1033A0
:10533000BEF1030F1944034421D91E1F0D467446C4
:10534000043C55F8047B46F8047F032CF8D8AEF1F2
:10535000040424F0030404342144234402F003022F
:1053600062B1013B0A4411F8014B03F8014F8A4234
:10537000F9D1F0BD0346F3E70346F2E7F0BD72460C
:10538000EEE700BF002900F095802DE9F04F0D46B3
:10539000164683B0804606F10B07FFF785FA55F8ED
:1053A00004EC162F2EF00304A5F108093CD81022B6
:1053B0001746BE423DD8944243DAC44B996809EB84
:1053C0000400884200F0B480436823F001010144E6
:1053D0004968C9074CD51EF0010F00F09B8031468B
:1053E0004046FEF7B1FF064600283AD055F8043C87
:1053F00023F001034B44A0F108029A4200F02181FE
:10540000221F242A00F20781132A00F2DB800346C0
:105410002A46116819605168596092689A60294655
:105420004046FFF74FFE1CE027F00707002F3A46E3
:10543000BFDA00260C233046C8F8003003B0BDE8C0
:10544000F08F2E46E31B0F2B1ED8D9F8043003F043
:10545000010323434C44C9F80430636843F001035B
:1054600063604046FFF722FA304603B0BDE8F08F94
:1054700023F00303E11891421FDBC36882682E46C4
:10548000D3600C469A60DDE7D9F8042009EB0701E8
:1054900002F001024C4443F001031743C9F80470C1
:1054A0004B60636843F00103083163604046FFF7D7
:1054B00009FED6E71146FEF747BF1EF0010F8ED159
:1054C00055F8081CA9EB010ADAF8041021F00301D1
:1054D0000B442344934225DBC26881685646CA6068
:1054E0009160DAF80C1056F8080F221F242AC160C8
:1054F000886000F29480132A6FD92968CAF80810CE
:105500006968CAF80C101B2A00F2A28008350AF15B
:10551000100263E055F8083CA9EB030ADAF804101E
:1055200021F0030163189342FFF659AF5646D8E7BE
:10553000416821F0030BA34407F11000834556DABC
:105540001EF0010F7FF44BAF55F8081CA9EB010AC0
:10555000DAF8041021F003018B445845E2DC56468A
:10556000DAF80C1056F8080F221F242AC160886050
:1055700000F28F80132A40F28A802968CAF8081046
:105580006968CAF80C101B2A00F28A8008350AF1F3
:1055900010022968116069685160A96891600AEB7E
:1055A0000701ABEB070242F0010299604A60DAF8AA
:1055B000043003F001031F434046CAF80470FFF7AC
:1055C00075F951E72B6803606B6843601B2A2DD87F
:1055D00000F1080305F108021BE732462968116053
:1055E00069685160A96891601C46D1462AE709EBB9
:1055F0000701ABEB070B4BF0010299604A6055F8CD
:10560000043C03F001031F43404645F8047CFFF7C8
:105610004DF92E4628E72946FFF750FEFFE62946BA
:1056200030461C46D146FFF749FE0BE7AB68836066
:10563000EB68C360242A17D000F1100305F11002B3
:10564000E7E650F8043C23F003031C442E46F9E639
:10565000A968CAF81010E968CAF81410242A0CD0F6
:1056600010350AF11802B9E72B6903616B694361D0
:1056700005F1180200F11803CBE62A69CAF81820D0
:105680006A69CAF81C2018350AF12002A6E73246DA
:105690007FE7294630460193FFF710FE019B7EE726
:1056A000A968CAF81010E968CAF81410242A03D0AF
:1056B00010350AF118026CE72A69CAF818206A69DD
:1056C000CAF81C2018350AF1200262E738040020CD
:1056D00021B1FF2A04D80A7001207047084670479C
:1056E0008A2303604FF0FF30704700BF044A05492A
:1056F0001368002B08BF0B4618441060184670470B
:105700000C0B0020200B0020F8B500BFF8BC08BC33
:105710009E467047F8B500BFF8BC08BC9E4670476F
:1057200002040608020C0810000000000102030435
:10573000000000000102030400000000000000005F
:105740000102030406070809000000000000000031
:10575000010203040607080948656C6C6F20576F47
:1057600072640A0010000020494E4600696E66000F
:105770004E414E006E616E00303132333435363773
:10578000383941424344454600000000303132334D
:10579000343536373839616263646566000000006D
:1057A000286E756C6C29000030000000202020203D
:1057B00020202020202020202020202030303030A9
:1057C000303030303030303030303030496E666913
:1057D0006E697479000000004E614E000000000008
:1057E0000080E03779C34143176E05B5B5B89346DD
:1057F000F5F93FE9034F384D321D30F94877825AA9
:105800003CBF737FDD4F1575000000000000F03FC6
:10581000000000000000244000000000000059408B
:105820000000000000408F40000000000088C340DE
:1058300000000000006AF8400000000080842E4153
:1058400000000000D01263410000000084D797419F
:105850000000000065CDCD41000000205FA00242A5
:10586000000000E876483742000000A2941A6D421A
:10587000000040E59C30A2420000901EC4BCD6420D
:1058800000003426F56B0C430080E03779C34143B8
:1058900000A0D8855734764300C84E676DC1AB432E
:1058A000003D9160E458E143408CB5781DAF15444C
:1058B00050EFE2D6E41A4B4492D54D06CFF0804427
:1058C000F64AE1C7022DB544B49DD9794378EA443C
:1058D00005000000190000007D00000043000000EA
:1058E000504F5349580000002E0000000020202097
:1058F0002020202020202828282828202020202080
:10590000202020202020202020202020208810104F
:1059100010101010101010101010101010040404AB
:105920000404040404040410101010101010414169
:105930004141414101010101010101010101010157
:10594000010101010101010110101010101042426B
:105950004242424202020202020202020202020227
:1059600002020202020202021010101020000000C7
:105970000000000000000000000000000000000027
:105980000000000000000000000000000000000017
:105990000000000000000000000000000000000007
:1059A00000000000000000000000000000000000F7
:1059B00000000000000000000000000000000000E7
:1059C00000000000000000000000000000000000D7
:1059D00000000000000000000000000000000000C7
:1059E00000000000000000000000000000000000B7
:0859F0007CB4FF7F0100000000
:0859F8006D1E0008E501000826
:045A0000C1010008D8
:105A040000127A00F40100001000002000000000E1
:105A140000000000FC02002064030020CC030020EE
:105A24000000000000000000000000000000000072
:105A34000000000000000000000000000000000062
:105A44000000000000000000000000000000000052
:105A54000000000000000000000000000000000042
:105A64000000000000000000000000000000000032
:105A74000000000000000000000000000000000022
:105A84000000000000000000000000000000000012
:105A94000000000000000000000000000000000002
:105AA40000000000000000000000000000000000F2
:105AB40000000000000000000100000000000000E1
:105AC4000E33CDAB34126DE6ECDE05000B000000A6
:105AD40000000000000000000000000000000000C2
:105AE40000000000000000000000000000000000B2
:105AF40000000000000000000000000000000000A2
:105B04000000000000000000000000000000000091
